{
  "contractName": "Box",
  "abi": [
    {
      "inputs": [
        {
          "internalType": "address",
          "name": "_collateralAsset",
          "type": "address"
        },
        {
          "internalType": "address",
          "name": "_longToken",
          "type": "address"
        },
        {
          "internalType": "address",
          "name": "_shortToken",
          "type": "address"
        },
        {
          "internalType": "address",
          "name": "_oracle",
          "type": "address"
        }
      ],
      "stateMutability": "nonpayable",
      "type": "constructor"
    },
    {
      "inputs": [],
      "name": "collateralAsset",
      "outputs": [
        {
          "internalType": "address",
          "name": "",
          "type": "address"
        }
      ],
      "stateMutability": "view",
      "type": "function"
    },
    {
      "inputs": [],
      "name": "longToken",
      "outputs": [
        {
          "internalType": "address",
          "name": "",
          "type": "address"
        }
      ],
      "stateMutability": "view",
      "type": "function"
    },
    {
      "inputs": [],
      "name": "longTokenValue",
      "outputs": [
        {
          "internalType": "uint256",
          "name": "",
          "type": "uint256"
        }
      ],
      "stateMutability": "view",
      "type": "function"
    },
    {
      "inputs": [],
      "name": "oracle",
      "outputs": [
        {
          "internalType": "address",
          "name": "",
          "type": "address"
        }
      ],
      "stateMutability": "view",
      "type": "function"
    },
    {
      "inputs": [],
      "name": "owner",
      "outputs": [
        {
          "internalType": "address",
          "name": "",
          "type": "address"
        }
      ],
      "stateMutability": "view",
      "type": "function"
    },
    {
      "inputs": [],
      "name": "shortToken",
      "outputs": [
        {
          "internalType": "address",
          "name": "",
          "type": "address"
        }
      ],
      "stateMutability": "view",
      "type": "function"
    },
    {
      "inputs": [],
      "name": "shortTokenValue",
      "outputs": [
        {
          "internalType": "uint256",
          "name": "",
          "type": "uint256"
        }
      ],
      "stateMutability": "view",
      "type": "function"
    },
    {
      "inputs": [
        {
          "internalType": "uint256",
          "name": "maxSpending",
          "type": "uint256"
        }
      ],
      "name": "approveSpending",
      "outputs": [],
      "stateMutability": "nonpayable",
      "type": "function"
    },
    {
      "inputs": [],
      "name": "getCollateralHeld",
      "outputs": [
        {
          "internalType": "uint256",
          "name": "",
          "type": "uint256"
        }
      ],
      "stateMutability": "view",
      "type": "function"
    },
    {
      "inputs": [
        {
          "internalType": "uint256",
          "name": "amount",
          "type": "uint256"
        }
      ],
      "name": "depositCollateral",
      "outputs": [],
      "stateMutability": "nonpayable",
      "type": "function"
    },
    {
      "inputs": [
        {
          "internalType": "uint256",
          "name": "amount",
          "type": "uint256"
        },
        {
          "internalType": "address",
          "name": "to",
          "type": "address"
        }
      ],
      "name": "withdraw",
      "outputs": [],
      "stateMutability": "nonpayable",
      "type": "function"
    }
  ],
  "bytecode": "0x608060405260015f5534801562000014575f80fd5b506040516200124a3803806200124a83398181016040528101906200003a9190620001fe565b8360025f6101000a81548173ffffffffffffffffffffffffffffffffffffffff021916908373ffffffffffffffffffffffffffffffffffffffff1602179055508260035f6101000a81548173ffffffffffffffffffffffffffffffffffffffff021916908373ffffffffffffffffffffffffffffffffffffffff1602179055508160045f6101000a81548173ffffffffffffffffffffffffffffffffffffffff021916908373ffffffffffffffffffffffffffffffffffffffff1602179055508060075f6101000a81548173ffffffffffffffffffffffffffffffffffffffff021916908373ffffffffffffffffffffffffffffffffffffffff1602179055503360015f6101000a81548173ffffffffffffffffffffffffffffffffffffffff021916908373ffffffffffffffffffffffffffffffffffffffff1602179055505f6008819055505f6005819055505f600681905550505050506200026d565b5f80fd5b5f73ffffffffffffffffffffffffffffffffffffffff82169050919050565b5f620001c8826200019d565b9050919050565b620001da81620001bc565b8114620001e5575f80fd5b50565b5f81519050620001f881620001cf565b92915050565b5f805f806080858703121562000219576200021862000199565b5b5f6200022887828801620001e8565b94505060206200023b87828801620001e8565b93505060406200024e87828801620001e8565b92505060606200026187828801620001e8565b91505092959194509250565b610fcf806200027b5f395ff3fe608060405234801561000f575f80fd5b50600436106100a6575f3560e01c806395f8c33d1161006f57806395f8c33d1461013e578063aabaecd61461015a578063b66333cd14610178578063bad4a01f14610196578063d8aef8a1146101b2578063e3065da7146101d0576100a6565b8062f714ce146100aa578063093e3994146100c657806328391058146100e45780637dc0d1d0146101025780638da5cb5b14610120575b5f80fd5b6100c460048036038101906100bf9190610a51565b6101ee565b005b6100ce61046d565b6040516100db9190610a9e565b60405180910390f35b6100ec610473565b6040516100f99190610a9e565b60405180910390f35b61010a610479565b6040516101179190610ac6565b60405180910390f35b61012861049e565b6040516101359190610ac6565b60405180910390f35b61015860048036038101906101539190610adf565b6104c3565b005b61016261058d565b60405161016f9190610ac6565b60405180910390f35b6101806105b2565b60405161018d9190610ac6565b60405180910390f35b6101b060048036038101906101ab9190610adf565b6105d7565b005b6101ba6108bd565b6040516101c79190610a9e565b60405180910390f35b6101d86108cb565b6040516101e59190610ac6565b60405180910390f35b60015f808282546101ff9190610b37565b925050819055505f8054905060015f9054906101000a900473ffffffffffffffffffffffffffffffffffffffff1673ffffffffffffffffffffffffffffffffffffffff163373ffffffffffffffffffffffffffffffffffffffff161461029a576040517f08c379a000000000000000000000000000000000000000000000000000000000815260040161029190610bc4565b60405180910390fd5b5f83116102dc576040517f08c379a00000000000000000000000000000000000000000000000000000000081526004016102d390610c2c565b60405180910390fd5b8260025f9054906101000a900473ffffffffffffffffffffffffffffffffffffffff1673ffffffffffffffffffffffffffffffffffffffff166370a08231306040518263ffffffff1660e01b81526004016103379190610ac6565b602060405180830381865afa158015610352573d5f803e3d5ffd5b505050506040513d601f19601f820116820180604052508101906103769190610c5e565b10156103b7576040517f08c379a00000000000000000000000000000000000000000000000000000000081526004016103ae90610cd3565b60405180910390fd5b60025f9054906101000a900473ffffffffffffffffffffffffffffffffffffffff1673ffffffffffffffffffffffffffffffffffffffff1663a9059cbb83856040518363ffffffff1660e01b8152600401610413929190610cf1565b6020604051808303815f875af115801561042f573d5f803e3d5ffd5b505050506040513d601f19601f820116820180604052508101906104539190610d4d565b5061045c6108f0565b5f548114610468575f80fd5b505050565b60055481565b60065481565b60075f9054906101000a900473ffffffffffffffffffffffffffffffffffffffff1681565b60015f9054906101000a900473ffffffffffffffffffffffffffffffffffffffff1681565b60015f808282546104d49190610b37565b925050819055505f8054905060025f9054906101000a900473ffffffffffffffffffffffffffffffffffffffff1673ffffffffffffffffffffffffffffffffffffffff1663095ea7b330846040518363ffffffff1660e01b815260040161053c929190610cf1565b6020604051808303815f875af1158015610558573d5f803e3d5ffd5b505050506040513d601f19601f8201168201806040525081019061057c9190610d4d565b505f548114610589575f80fd5b5050565b60025f9054906101000a900473ffffffffffffffffffffffffffffffffffffffff1681565b60035f9054906101000a900473ffffffffffffffffffffffffffffffffffffffff1681565b60015f808282546105e89190610b37565b925050819055505f805490505f8211610636576040517f08c379a000000000000000000000000000000000000000000000000000000000815260040161062d90610c2c565b60405180910390fd5b8160025f9054906101000a900473ffffffffffffffffffffffffffffffffffffffff1673ffffffffffffffffffffffffffffffffffffffff166370a08231336040518263ffffffff1660e01b81526004016106919190610ac6565b602060405180830381865afa1580156106ac573d5f803e3d5ffd5b505050506040513d601f19601f820116820180604052508101906106d09190610c5e565b1015610711576040517f08c379a000000000000000000000000000000000000000000000000000000000815260040161070890610cd3565b60405180910390fd5b8160025f9054906101000a900473ffffffffffffffffffffffffffffffffffffffff1673ffffffffffffffffffffffffffffffffffffffff1663dd62ed3e33306040518363ffffffff1660e01b815260040161076e929190610d78565b602060405180830381865afa158015610789573d5f803e3d5ffd5b505050506040513d601f19601f820116820180604052508101906107ad9190610c5e565b10156107ee576040517f08c379a00000000000000000000000000000000000000000000000000000000081526004016107e590610de9565b60405180910390fd5b60025f9054906101000a900473ffffffffffffffffffffffffffffffffffffffff1673ffffffffffffffffffffffffffffffffffffffff166323b872dd3330856040518463ffffffff1660e01b815260040161084c93929190610e07565b6020604051808303815f875af1158015610868573d5f803e3d5ffd5b505050506040513d601f19601f8201168201806040525081019061088c9190610d4d565b508160085f82825461089e9190610b37565b925050819055506108ad6108f0565b5f5481146108b9575f80fd5b5050565b5f6108c66109b7565b905090565b60045f9054906101000a900473ffffffffffffffffffffffffffffffffffffffff1681565b5f60075f9054906101000a900473ffffffffffffffffffffffffffffffffffffffff1673ffffffffffffffffffffffffffffffffffffffff1663feaf968c6040518163ffffffff1660e01b815260040160a060405180830381865afa15801561095b573d5f803e3d5ffd5b505050506040513d601f19601f8201168201806040525081019061097f9190610eae565b50505091505061098d6109b7565b816109989190610f25565b6005819055506005546008546109ae9190610f66565b60068190555050565b5f600854905090565b5f80fd5b5f819050919050565b6109d6816109c4565b81146109e0575f80fd5b50565b5f813590506109f1816109cd565b92915050565b5f73ffffffffffffffffffffffffffffffffffffffff82169050919050565b5f610a20826109f7565b9050919050565b610a3081610a16565b8114610a3a575f80fd5b50565b5f81359050610a4b81610a27565b92915050565b5f8060408385031215610a6757610a666109c0565b5b5f610a74858286016109e3565b9250506020610a8585828601610a3d565b9150509250929050565b610a98816109c4565b82525050565b5f602082019050610ab15f830184610a8f565b92915050565b610ac081610a16565b82525050565b5f602082019050610ad95f830184610ab7565b92915050565b5f60208284031215610af457610af36109c0565b5b5f610b01848285016109e3565b91505092915050565b7f4e487b71000000000000000000000000000000000000000000000000000000005f52601160045260245ffd5b5f610b41826109c4565b9150610b4c836109c4565b9250828201905080821115610b6457610b63610b0a565b5b92915050565b5f82825260208201905092915050565b7f4f6e6c79206f776e65722063616e2077697468647261770000000000000000005f82015250565b5f610bae601783610b6a565b9150610bb982610b7a565b602082019050919050565b5f6020820190508181035f830152610bdb81610ba2565b9050919050565b7f416d6f756e74206d7573742062652067726561746572207468616e20300000005f82015250565b5f610c16601d83610b6a565b9150610c2182610be2565b602082019050919050565b5f6020820190508181035f830152610c4381610c0a565b9050919050565b5f81519050610c58816109cd565b92915050565b5f60208284031215610c7357610c726109c0565b5b5f610c8084828501610c4a565b91505092915050565b7f496e73756666696369656e742062616c616e63650000000000000000000000005f82015250565b5f610cbd601483610b6a565b9150610cc882610c89565b602082019050919050565b5f6020820190508181035f830152610cea81610cb1565b9050919050565b5f604082019050610d045f830185610ab7565b610d116020830184610a8f565b9392505050565b5f8115159050919050565b610d2c81610d18565b8114610d36575f80fd5b50565b5f81519050610d4781610d23565b92915050565b5f60208284031215610d6257610d616109c0565b5b5f610d6f84828501610d39565b91505092915050565b5f604082019050610d8b5f830185610ab7565b610d986020830184610ab7565b9392505050565b7f496e73756666696369656e7420616c6c6f77616e6365000000000000000000005f82015250565b5f610dd3601683610b6a565b9150610dde82610d9f565b602082019050919050565b5f6020820190508181035f830152610e0081610dc7565b9050919050565b5f606082019050610e1a5f830186610ab7565b610e276020830185610ab7565b610e346040830184610a8f565b949350505050565b5f69ffffffffffffffffffff82169050919050565b610e5a81610e3c565b8114610e64575f80fd5b50565b5f81519050610e7581610e51565b92915050565b5f819050919050565b610e8d81610e7b565b8114610e97575f80fd5b50565b5f81519050610ea881610e84565b92915050565b5f805f805f60a08688031215610ec757610ec66109c0565b5b5f610ed488828901610e67565b9550506020610ee588828901610e9a565b9450506040610ef688828901610c4a565b9350506060610f0788828901610c4a565b9250506080610f1888828901610e67565b9150509295509295909350565b5f610f2f826109c4565b9150610f3a836109c4565b9250828202610f48816109c4565b91508282048414831517610f5f57610f5e610b0a565b5b5092915050565b5f610f70826109c4565b9150610f7b836109c4565b9250828203905081811115610f9357610f92610b0a565b5b9291505056fea2646970667358221220feb1f1cf6b20ecbd38ed4f98164770540f95bfb1f1435e0445dbad4f1ed5a0ed64736f6c63430008140033",
  "immutableReferences": {},
  "source": "// SPDX-License-Identifier: AGPL-3.0-only\n// Author: Rashad Haddad, GitHub @rashadalh\n// Desc: Provides logic to manage payoffs in virtual box.\npragma solidity ^0.8.20;\n\nimport \"../libs/ReentrancyGuard.sol\";\nimport \"../libs/IERC20.sol\";\nimport \"../libs/AggregatorV3Interface.sol\";\n\ncontract Box is ReentrancyGuard {\n    // public variables\n    address public owner;\n    address public collateralAsset;\n    address public longToken;\n    address public shortToken;\n    uint256 public longTokenValue;\n    uint256 public shortTokenValue;\n    address public oracle;\n    uint256 private collateralHeld;\n\n    /* @notice Creates a new box\n       @param collateralAsset The address of the collateral asset\n       @param longToken The address of the long token\n       @param shortToken The address of the short token\n       @param oracle The address of the oracle\n\n       The box is a virtual contruct that holds value in only the collateral asset. Everything else is a virtual represent of a token.\n       The oracle address refers to a chainlink oracle that provides the price of the asset to value the long and short tokens against the collateral asset.\n\n       For example. If the collateral asset is USDC, then the longToken could be WETH, the shortToken could be USDC, and the oracle could be the WETH/USDC price feed.\n    */\n    constructor(address _collateralAsset, address _longToken, address _shortToken, address _oracle) {\n        collateralAsset = _collateralAsset;\n        longToken = _longToken;\n        shortToken = _shortToken;\n        oracle = _oracle;\n\n        owner = msg.sender;\n        collateralHeld = 0;\n        longTokenValue = 0;\n        shortTokenValue = 0;\n    }\n\n    /* Approve's contract to spend value from msg.sender */\n    function approveSpending(uint256 maxSpending) nonReentrant external {\n        // approve spending of maxSpending\n        IERC20(collateralAsset).approve(address(this), maxSpending);\n    }\n\n    function _getCollateralHeld() internal view returns (uint256) {\n        return collateralHeld;\n    }\n    function getCollateralHeld() external view returns (uint256) {\n        return _getCollateralHeld();\n    }\n\n    function _updateValues() internal {\n        // get latest price from chainlink oracle\n        (, int256 answer,,,) = AggregatorV3Interface(oracle).latestRoundData();\n\n        // set long and short token values\n        // TODO - check decimals\n        longTokenValue = uint256(answer) * _getCollateralHeld();\n        shortTokenValue = collateralHeld - longTokenValue;\n    }\n\n    function depositCollateral(uint256 amount) nonReentrant external {\n        // require amount > 0\n        require(amount > 0, \"Amount must be greater than 0\");\n\n        // check that user has sufficient balance\n        require(IERC20(collateralAsset).balanceOf(msg.sender) >= amount, \"Insufficient balance\");\n\n        // check that user has approved spending\n        require(IERC20(collateralAsset).allowance(msg.sender, address(this)) >= amount, \"Insufficient allowance\");\n\n        // transfer amount from user to box\n        IERC20(collateralAsset).transferFrom(msg.sender, address(this), amount);\n        \n        // set collateralHeld to amount\n        collateralHeld += amount;\n\n        // update values\n        _updateValues();\n    }\n\n    // This function should only be called by external trade manager\n    function withdraw(uint256 amount, address to) nonReentrant external {\n        require(msg.sender == owner, \"Only owner can withdraw\");\n\n        // require amount > 0\n        require(amount > 0, \"Amount must be greater than 0\");\n\n        // check that box has sufficient balance\n        require(IERC20(collateralAsset).balanceOf(address(this)) >= amount, \"Insufficient balance\");\n\n        // transfer amount from box to to\n        IERC20(collateralAsset).transfer(to, amount);\n\n        // update long and short values\n        _updateValues();\n    }\n}",
  "sourcePath": "/Users/rashad/Library/CloudStorage/OneDrive-Personal/Documents/Protocols/Hook-Finance/accounting/contracts/virtual.sol",
  "compiler": {
    "name": "solc",
    "version": "0.8.20+commit.a1b79de6.Emscripten.clang"
  },
  "schemaVersion": "3.4.7",
  "updatedAt": "2023-10-16T05:09:03.835Z",
  "devdoc": {
    "kind": "dev",
    "methods": {},
    "version": 1
  },
  "userdoc": {
    "kind": "user",
    "methods": {},
    "version": 1
  }
}